:100000000C942A000C9447000C9447000C94470071
:100010000C9447000C9447000C9447000C94470044
:100020000C9447000C9447000C9447000C94470034
:100030000C9447000C9447000C9447000C94470024
:100040000C9447000C9447000C9447000C94470014
:100050000C94470011241FBECFE5D8E0DEBFCDBF12
:1000600010E0A0E6B0E0E8E3F3E002C005900D92F6
:10007000A036B107D9F720E0A0E6B0E001C01D929C
:10008000A036B207E1F70E9440010C949A010C944B
:100090000000442379F1413009F05FC0813079F0EC
:1000A00028F08230A9F08330E1F008952AB381E08E
:1000B00090E001C0880F6A95EAF7822B2CC027B325
:1000C00081E090E001C0880F6A95EAF7822B2EC08C
:1000D00024B381E090E001C0880F6A95EAF7822B93
:1000E00030C021B381E090E001C0880F6A95EAF743
:1000F000822B32C0813089F028F08230C9F0833001
:1001000011F108952AB381E090E001C0880F6A954B
:10011000EAF7809582238ABB089527B381E090E0B7
:1001200001C0880F6A95EAF78095822387BB0895FE
:1001300024B381E090E001C0880F6A95EAF78095CA
:10014000822384BB089521B381E090E001C0880F31
:100150006A95EAF78095822381BB0895442379F15B
:10016000413009F05FC0813079F028F08230A9F089
:100170008330E1F008952BB381E090E001C0880F57
:100180006A95EAF7822B2CC028B381E090E001C089
:10019000880F6A95EAF7822B2EC025B381E090E0A4
:1001A00001C0880F6A95EAF7822B30C022B381E044
:1001B00090E001C0880F6A95EAF7822B32C0813047
:1001C00089F028F08230C9F0833011F108952BB303
:1001D00081E090E001C0880F6A95EAF7809582235C
:1001E0008BBB089528B381E090E001C0880F6A9529
:1001F000EAF78095822388BB089525B381E090E0DB
:1002000001C0880F6A95EAF78095822385BB08951F
:1002100022B381E090E001C0880F6A95EAF78095EB
:10022000822382BB089541E062E082E00C944900A1
:1002300041E067E082E00C94490041E063E083E044
:100240000C94490041E062E082E00C94AE0041E091
:1002500067E082E00C94AE0041E063E083E00C9440
:10026000AE0040E062E082E00C94AE0040E067E067
:1002700082E00C94AE0040E063E083E00C94AE00BA
:100280000E947E010E9413010E9418010E941D011C
:100290002FEF83ED90E3215080409040E1F700C0C4
:1002A00000008AE00E949501813319F40E94220126
:1002B000F8CF823319F40E942701F3CF833391F0F2
:1002C000843319F40E943101ECCF853319F40E9474
:1002D0003601E7CF863379F0873339F40E94220163
:1002E0000E9427010E942C01DCCF8833D1F60E94A6
:1002F00031010E9436010E943B01D3CF40E064E00F
:1003000081E00E94490040E065E081E00E944900F0
:1003100041E066E081E00E94490040E067E081E062
:100320000E94490080E48DB908958FB9779BFECF74
:080330008FB10895F894FFCF8E
:00000001FF
