S00E00004D61737465722E73726563AA
S11300000C9432000C944F000C944F000C944F004D
S11300100C944F000C944F000C944F000C944F0020
S11300200C944F000C944F000C944F000C944F0010
S11300300C944F000C944F000C944F000C944F0000
S11300400C944F000C944F000C944F000C944F00F0
S11300500C944F00E502E802EB02EE02F102F40216
S1130060F702FA0211241FBECFE5D8E0DEBFCDBFF0
S113007010E0A0E6B0E0E0EBF6E002C005900D92DF
S1130080A03FB107D9F720E0A0EFB0E001C01D9276
S1130090A13FB207E1F70E94AD020C9456030C9401
S11300A00000442379F1413009F05FC0813079F0D8
S11300B028F08230A9F08330E1F008952AB381E07A
S11300C090E001C0880F6A95EAF7822B2CC027B311
S11300D081E090E001C0880F6A95EAF7822B2EC078
S11300E024B381E090E001C0880F6A95EAF7822B7F
S11300F030C021B381E090E001C0880F6A95EAF72F
S1130100822B32C0813089F028F08230C9F08330EC
S113011011F108952AB381E090E001C0880F6A9537
S1130120EAF7809582238ABB089527B381E090E0A3
S113013001C0880F6A95EAF78095822387BB0895EA
S113014024B381E090E001C0880F6A95EAF78095B6
S1130150822384BB089521B381E090E001C0880F1D
S11301606A95EAF78095822381BB0895442379F147
S1130170413009F05FC0813079F028F08230A9F075
S11301808330E1F008952BB381E090E001C0880F43
S11301906A95EAF7822B2CC028B381E090E001C075
S11301A0880F6A95EAF7822B2EC025B381E090E090
S11301B001C0880F6A95EAF7822B30C022B381E030
S11301C090E001C0880F6A95EAF7822B32C0813033
S11301D089F028F08230C9F0833011F108952BB3EF
S11301E081E090E001C0880F6A95EAF78095822348
S11301F08BBB089528B381E090E001C0880F6A9515
S1130200EAF78095822388BB089525B381E090E0C6
S113021001C0880F6A95EAF78095822385BB08950B
S113022022B381E090E001C0880F6A95EAF78095D7
S1130230822382BB0895CF93C82F40E061E081E020
S11302400E94B60040E062E081E00E94B60040E017
S113025063E081E00E94B6008BB39C2F907F8F7087
S1130260892B8BBB41E063E081E00E94B6008FECF8
S113027097E00197F1F700C0000040E063E081E0FF
S11302800E94B6002BB330E1C39FC0011124922F0A
S11302909F70892B8BBB41E063E081E00E94B60034
S11302A08FEC97E00197F1F700C0000040E063E0B5
S11302B081E00E94B6008FE097E20197F1F700C059
S11302C00000CF91089541E061E081E00E94510077
S11302D041E062E081E00E94510041E063E081E09E
S11302E00E94510041E064E080E00E94510041E03E
S11302F065E080E00E94510041E066E080E00E94F9
S1130300510041E067E080E00E9451002FEF80E758
S113031092E0215080409040E1F700C0000083E368
S11303200E941B0182E30E941B0188E20E941B01C0
S11303308CE00E941B0181E00E941B0186E00E9468
S11303401B0182E00C941B01CF93C82F41E061E0B4
S113035081E00E94B60040E062E081E00E94B600C5
S113036040E063E081E00E94B6008BB39C2F907F55
S11303708F70892B8BBB41E063E081E00E94B60063
S11303808FEC97E00197F1F700C0000040E063E0D4
S113039081E00E94B6002BB330E1C39FC001112459
S11303A0922F9F70892B8BBB41E063E081E00E9418
S11303B0B6008FEC97E00197F1F700C0000040E031
S11303C063E081E00E94B6008FE097E20197F1F7C5
S11303D000C00000CF9108950F931F93CF938C0119
S11303E0C0E0F801EC0FF11D8081882321F00E9408
S11303F0A401CF5FF6CFCF911F910F910895CF93B2
S1130400DF9300D0CDB7DEB790E8998390EC9A8360
S1130410FE01E80FF11D8181860F0F900F90DF918F
S1130420CF910C941B0181E00C941B01CF92DF92BD
S1130430EF92FF920F931F93CF93DF9300D000D0DE
S1130440CDB7DEB70E9413028091F000833008F02C
S11304507DC086E690E00E94EC018E010F5F1F4F85
S11304606E0125E0C20ED11C78010E944C03D70115
S11304708D937D010E94A401EC14FD04B1F7E1E623
S1130480F0E0D8019D918D018191981759F160E0B8
S113049081E00E94FF0181E790E00E94EC018091DD
S11304A0F00091E0980F9093F0008F5C0E94A401FB
S11304B08CE790E00E94EC01BFEFE9E6F8E1B1506F
S11304C0E040F040E1F700C000000F900F900F9063
S11304D00F90DF91CF911F910F91FF90EF90DF90DC
S11304E0CF90089520E0E536F20759F68FEF99E6AC
S11304F0A8E181509040A040E1F700C000000E94B4
S113050013021092600080E990E00E94EC0160E028
S113051081E00E94FF018BE990E00E94EC01BFEFB3
S1130520E3EDF0E3B150E040F040E1F700C000003B
S11305300F900F900F900F90DF91CF911F910F911B
S1130540FF90EF90DF90CF900C9413020E9413025F
S113055082E890E00E94EC01FFCF0E9403030E9416
S113056063010E9439032FEF89E698E1215080400E
S11305709040E1F700C0000080916000813019F4E0
S11305800E941602F9CFD0E00E944C03C82F813399
S113059079F0823369F0833359F0843349F0853339
S11305A039F0863329F0873319F0883309F0CD2FD9
S11305B00E9413028C2F90E0FC01F197E830F105C2
S11305C0E8F4E65DFF4F0C94500383EA90E014C016
S11305D08BEA90E011C083EB90E00EC08BEB90E0CF
S11305E00BC084EC90E008C08DEC90E005C086ED73
S11305F090E002C082EE90E00E94EC018C2F0E94F9
S11306002403DC2FC1CF41E064E081E00E9451006B
S113061041E065E081E00E94510040E066E081E055
S11306200E94510041E067E081E00E94510083E5AF
S11306308DB9089540E064E081E00C94B60041E097
S113064064E081E00C94B600CF93C82F0E941A0393
S11306502FE788E391E0215080409040E1F700C00B
S11306600000CFB9779BFECF0E941F038FB1CF91BB
S1130670089540E060E083E00E94510041E061E0C1
S113068083E00E9451008AB188618AB980B5866886
S113069080BD83E389B908955F9BFECF8CB1089533
S11306A0EE0FFF1F0590F491E02D0994F894FFCF0D
S11306B001313233340050617373776F72643A20BE
S11306C00057726F6E6750617373200054696D65D3
S11306D073004163636573732044656E69656400E8
S11306E0526967687420506173730057656C636F57
S11306F06D65004C454430204F4E004C454431203C
S11307004F4E004C454432204F4E004C454430205F
S11307104F4646004C454431204F4646004C454424
S113072032204F464600416C6C204C454473204FA8
S11307304E00416C6C204C454473204F46460000EB
S9030000FC
