S00E00004D61737465722E73726563AA
S11300000C942A000C943F000C943F000C943F0085
S11300100C943F000C943F000C943F000C943F0060
S11300200C943F000C943F000C943F000C943F0050
S11300300C943F000C943F000C943F000C943F0040
S11300400C943F000C943F000C943F000C943F0030
S11300500C943F0011241FBECFE5D8E0DEBFCDBF16
S113006010E0A0E6B0E0E2EBF2E002C005900D92F1
S1130070A436B107D9F70E9423010C9457010C94BC
S113008000004423B9F1413009F06BC0813089F09C
S113009028F08230C9F0833011F108952AB381E049
S11300A090E002C0880F991F6A95E2F7822B8ABB01
S11300B0089527B381E090E002C0880F991F6A95E4
S11300C0E2F7822B87BB089524B381E090E002C05D
S11300D0880F991F6A95E2F7822B84BB089521B398
S11300E081E090E002C0880F991F6A95E2F7822BA5
S11300F081BB0895813091F028F08230D9F08330AB
S113010029F108952AB381E090E002C0880F991F75
S11301106A95E2F7809582238ABB089527B381E02C
S113012090E002C0880F991F6A95E2F780958223B8
S113013087BB089524B381E090E002C0880F991F23
S11301406A95E2F78095822384BB089521B381E008
S113015090E002C0880F991F6A95E2F78095822388
S113016081BB08954423B9F1413009F06BC081305B
S113017089F028F08230C9F0833011F108952BB34F
S113018081E090E002C0880F991F6A95E2F7822B04
S11301908BBB089528B381E090E002C0880F991FBB
S11301A06A95E2F7822B88BB089525B381E090E03D
S11301B002C0880F991F6A95E2F7822B85BB0895C8
S11301C022B381E090E002C0880F991F6A95E2F79C
S11301D0822B82BB0895813091F028F08230D9F0CF
S11301E0833029F108952BB381E090E002C0880F99
S11301F0991F6A95E2F7809582238BBB089528B3F3
S113020081E090E002C0880F991F6A95E2F780951B
S1130210822388BB089525B381E090E002C0880F53
S1130220991F6A95E2F78095822385BB089522B3CE
S113023081E090E002C0880F991F6A95E2F78095EB
S1130240822382BB08950E9435010E944C01C0E0C4
S113025003C00E945201CF5FEC2FF0E0E05AFF4F41
S113026080818111F6CFC0E0F7CF41E064E081E006
S11302700E94410041E065E081E00E94410040E0CD
S113028066E081E00E94410041E067E081E00E9475
S1130290410083E58DB9089540E064E081E00E9467
S11302A0B20008958FB9779BFECF8FB10895F8946B
S10502B0FFCF7A
S10702B2304F0A00BB
S9030000FC
